S012000044696F31336D617263682E7372656387
S11300000C942A000C9434000C9434000C943400A6
S11300100C9434000C9434000C9434000C9434008C
S11300200C9434000C9434000C9434000C9434007C
S11300300C9434000C9434000C9434000C9434006C
S11300400C9434000C9434000C9434000C9434005C
S11300500C94340011241FBECFE5D8E0DEBFCDBF21
S11300600E94B1010C94C9010C94000040E060E0CE
S113007081E00E9456000895CF93DF931F92CDB77D
S1130080DEB71982AE014F5F5F4F60E081E00E94EE
S11300903801B099FECF8FE39CE90197F1F700C0D6
S11300A0000089810F90DF91CF9108954423B9F125
S11300B0413009F06BC0813089F028F08230C9F0FA
S11300C0833011F108952AB381E090E002C0880FD3
S11300D0991F6A95E2F7822B8ABB089527B381E0C2
S11300E090E002C0880F991F6A95E2F7822B87BBC4
S11300F0089524B381E090E002C0880F991F6A95A7
S1130100E2F7822B84BB089521B381E090E002C022
S1130110880F991F6A95E2F7822B81BB089581307D
S113012091F028F08230D9F0833029F108952AB370
S113013081E090E002C0880F991F6A95E2F78095EC
S113014082238ABB089527B381E090E002C0880F20
S1130150991F6A95E2F78095822387BB089524B39B
S113016081E090E002C0880F991F6A95E2F78095BC
S1130170822384BB089521B381E090E002C0880FFC
S1130180991F6A95E2F78095822381BB08954423E1
S1130190B9F1413009F06BC0813089F028F0823028
S11301A0C9F0833011F108952BB381E090E002C0CF
S11301B0880F991F6A95E2F7822B8BBB089528B3A9
S11301C081E090E002C0880F991F6A95E2F7822BC4
S11301D088BB089525B381E090E002C0880F991F81
S11301E06A95E2F7822B85BB089522B381E090E003
S11301F002C0880F991F6A95E2F7822B82BB08958B
S1130200813091F028F08230D9F0833029F10895BB
S11302102BB381E090E002C0880F991F6A95E2F742
S1130220809582238BBB089528B381E090E002C0BF
S1130230880F991F6A95E2F78095822388BB0895F9
S113024025B381E090E002C0880F991F6A95E2F718
S11302508095822385BB089522B381E090E002C09B
S1130260880F991F6A95E2F78095822382BB0895CF
S1130270813089F028F08230C9F0833011F108957B
S113028089B390E002C0959587956A95E2F78170ED
S1130290FA018083089586B390E002C0959587950E
S11302A06A95E2F78170FA018083089583B390E040
S11302B002C0959587956A95E2F78170FA0180836B
S11302C0089580B390E002C0959587956A95E2F70A
S11302D08170FA0180830895813089F028F082309A
S11302E0C9F0833011F108952BB381E090E002C08E
S11302F0880F991F6A95E2F782278BBB089528B36C
S113030081E090E002C0880F991F6A95E2F7822786
S113031088BB089525B381E090E002C0880F991F3F
S11303206A95E2F7822785BB089522B381E090E0C5
S113033002C0880F991F6A95E2F7822782BB08954D
S113034041E062E082E00E945600089541E062E0EC
S113035082E00E94C700089562E082E00E946C017E
S113036008950E94A0010E94A6010E9436000E94E6
S11303703C008130E1F70E94AC012FEF89E698E15F
S1130380215080409040E1F700C000000E94AC0181
S1090390EECFF894FFCF4C
S9030000FC
